{
  "contractName": "Faucet",
  "abi": [
    {
      "inputs": [
        {
          "internalType": "uint256",
          "name": "",
          "type": "uint256"
        }
      ],
      "name": "funders",
      "outputs": [
        {
          "internalType": "address",
          "name": "",
          "type": "address"
        }
      ],
      "stateMutability": "view",
      "type": "function",
      "constant": true
    },
    {
      "stateMutability": "payable",
      "type": "receive",
      "payable": true
    },
    {
      "inputs": [],
      "name": "addFunds",
      "outputs": [],
      "stateMutability": "payable",
      "type": "function",
      "payable": true
    },
    {
      "inputs": [],
      "name": "getAllFunders",
      "outputs": [
        {
          "internalType": "address[]",
          "name": "",
          "type": "address[]"
        }
      ],
      "stateMutability": "view",
      "type": "function",
      "constant": true
    },
    {
      "inputs": [
        {
          "internalType": "uint8",
          "name": "index",
          "type": "uint8"
        }
      ],
      "name": "getFunderAtIndex",
      "outputs": [
        {
          "internalType": "address",
          "name": "",
          "type": "address"
        }
      ],
      "stateMutability": "view",
      "type": "function",
      "constant": true
    }
  ],
  "bytecode": "0x608060405234801561001057600080fd5b506104d2806100206000396000f3fe6080604052600436106100435760003560e01c80630a93cf331461004f5780636fbbb55d1461008c578063a26759cb146100b7578063dc0d3dff146100c15761004a565b3661004a57005b600080fd5b34801561005b57600080fd5b50610076600480360381019061007191906102a1565b6100fe565b604051610083919061030f565b60405180910390f35b34801561009857600080fd5b506100a1610131565b6040516100ae91906103e8565b60405180910390f35b6100bf6101bf565b005b3480156100cd57600080fd5b506100e860048036038101906100e39190610440565b610224565b6040516100f5919061030f565b60405180910390f35b600080610109610131565b9050808360ff16815181106101215761012061046d565b5b6020026020010151915050919050565b606060008054806020026020016040519081016040528092919081815260200182805480156101b557602002820191906000526020600020905b8160009054906101000a900473ffffffffffffffffffffffffffffffffffffffff1673ffffffffffffffffffffffffffffffffffffffff168152602001906001019080831161016b575b5050505050905090565b6000339080600181540180825580915050600190039060005260206000200160009091909190916101000a81548173ffffffffffffffffffffffffffffffffffffffff021916908373ffffffffffffffffffffffffffffffffffffffff160217905550565b6000818154811061023457600080fd5b906000526020600020016000915054906101000a900473ffffffffffffffffffffffffffffffffffffffff1681565b600080fd5b600060ff82169050919050565b61027e81610268565b811461028957600080fd5b50565b60008135905061029b81610275565b92915050565b6000602082840312156102b7576102b6610263565b5b60006102c58482850161028c565b91505092915050565b600073ffffffffffffffffffffffffffffffffffffffff82169050919050565b60006102f9826102ce565b9050919050565b610309816102ee565b82525050565b60006020820190506103246000830184610300565b92915050565b600081519050919050565b600082825260208201905092915050565b6000819050602082019050919050565b61035f816102ee565b82525050565b60006103718383610356565b60208301905092915050565b6000602082019050919050565b60006103958261032a565b61039f8185610335565b93506103aa83610346565b8060005b838110156103db5781516103c28882610365565b97506103cd8361037d565b9250506001810190506103ae565b5085935050505092915050565b60006020820190508181036000830152610402818461038a565b905092915050565b6000819050919050565b61041d8161040a565b811461042857600080fd5b50565b60008135905061043a81610414565b92915050565b60006020828403121561045657610455610263565b5b60006104648482850161042b565b91505092915050565b7f4e487b7100000000000000000000000000000000000000000000000000000000600052603260045260246000fdfea2646970667358221220e536b1b46b662b474278788316fb83d09275fb11a65444f3f18edf4bd722ee4764736f6c63430008130033",
  "immutableReferences": {},
  "source": "// SPDX-License-Identifier: MIT\n// pragma solidity >=0.4.22 <0.9.0;\npragma solidity 0.8.19;\n\n// ; \n// ; \n// \n// json\ncontract Faucet {\n//     uint public funds = 1000; // positives values only\n//     int public counter = -10;\n\n//     // int256: min: -2^255, max: 2^255-1\n\n//     uint32 public test = 4294967295; // 2^32-1\n\n    // it's called when you make a tx that \n    // doesn't specifty function name to call\n    // tx = transaction\n\n\n\n    // mapping(address => bool) public funders;\n    address[] public funders;\n    // External functions are part of the contract interface, \n    // which means they can be called from other contracts and via transactions.\n    // via, ; \n    receive() external payable {\n        // ;\n    }\n    function addFunds() public payable {\n        // funders[add]=true;\n        funders.push(msg.sender);\n    }\n\n    // memory, \n    // memory(, ), \n    // storage(, ), \n    // calldata(, , ); \n    function getAllFunders() public view  returns (address[] memory) {\n        return funders;\n    }\n\n    function getFunderAtIndex(uint8 index) external view returns(address) {\n        address[] memory _funders = getAllFunders();\n        return _funders[index];\n    }\n}\n\n\n// external: , ; ;\n// this.f();\n// public: ;",
  "sourcePath": "/Users/lonely/learn/react/ultimate-react-course/101-nextjs-dapp/blockchain/faucet/contracts/FaucetContract.sol",
  "compiler": {
    "name": "solc",
    "version": "0.8.19+commit.7dd6d404.Emscripten.clang"
  },
  "schemaVersion": "3.4.16",
  "updatedAt": "2024-03-16T13:06:57.238Z",
  "networkType": "ethereum",
  "devdoc": {
    "kind": "dev",
    "methods": {},
    "version": 1
  },
  "userdoc": {
    "kind": "user",
    "methods": {},
    "version": 1
  }
}