{
  "contractName": "Test",
  "abi": [
    {
      "inputs": [
        {
          "internalType": "uint256",
          "name": "testNum",
          "type": "uint256"
        }
      ],
      "name": "test",
      "outputs": [
        {
          "internalType": "uint256",
          "name": "",
          "type": "uint256"
        }
      ],
      "stateMutability": "pure",
      "type": "function"
    }
  ],
  "bytecode": "0x608060405234801561001057600080fd5b5061016f806100206000396000f3fe608060405234801561001057600080fd5b506004361061002b5760003560e01c806329e99f0714610030575b600080fd5b61004a600480360381019061004591906100e2565b610060565b604051610057919061011e565b60405180910390f35b60006004604051505060006040518060800160405280600160ff168152602001600260ff168152602001600360ff168152602001600460ff16815250905082915050919050565b600080fd5b6000819050919050565b6100bf816100ac565b81146100ca57600080fd5b50565b6000813590506100dc816100b6565b92915050565b6000602082840312156100f8576100f76100a7565b5b6000610106848285016100cd565b91505092915050565b610118816100ac565b82525050565b6000602082019050610133600083018461010f565b9291505056fea2646970667358221220753b57db32cef513a4dc905f3c913a7f71cbaccdacc679ad4b4d522f8927da3264736f6c63430008130033",
  "immutableReferences": {},
  "source": "// SPDX-License-Identifier: MIT\npragma solidity 0.8.19;\n\ncontract Test {\n    function test(uint testNum) external pure returns (uint) {\n        // 内联汇编（inline assembly）是一种在 Solidity 中直接编写汇编代码的方式。\n        // 一般是不这么写的, 除非你知道你在干什么;\n        // 它允许你直接访问 EVM 的底层操作, 但是也会增加代码的复杂性和难以维护性。\n        // 比如直接访问EVM的栈, 内存和存储; \n        assembly {\n            let _num := 4\n            let _tem := mload(0x40)\n        }\n        uint8[4] memory items = [1,2,3,4]; \n        // 这里在说, 他开辟了内存, 存到了3个块里面, 从0x0到0x20到0x40\n        return testNum;\n    }\n}",
  "sourcePath": "/Users/lonely/learn/react/ultimate-react-course/101-nextjs-dapp/blockchain/faucet/contracts/Test.sol",
  "compiler": {
    "name": "solc",
    "version": "0.8.19+commit.7dd6d404.Emscripten.clang"
  },
  "schemaVersion": "3.4.16",
  "updatedAt": "2024-06-02T17:06:58.973Z",
  "devdoc": {
    "kind": "dev",
    "methods": {},
    "version": 1
  },
  "userdoc": {
    "kind": "user",
    "methods": {},
    "version": 1
  }
}